:020000040800F2
:10000000883D00205D0200085D4F0008593400085B
:10001000154D0008F90F000819AB0008000000009A
:100020000000000000000000000000007101000856
:10003000DB1E000800000000F9010008490200086A
:10004000770200087702000877020008515E000876
:100050007702000877020008212900083D290008DE
:10006000592900087702000877020008C51C00081B
:10007000770200087702000877020008770200087C
:10008000770200087702000877020008770200086C
:10009000770200087702000877020008912900081B
:1000A000770200087702000877020008770200084C
:1000B0007DA2000895A200087702000877020008D8
:1000C000770200087702000877020008770200082C
:1000D0007702000877020008C1A7000809A80008F5
:1000E00077020008B15A000877020008770200087A
:1000F00077020008DFF80CD000F028FD0048004728
:1001000085BF0008883D002080F309887047EFF321
:1001100009807047684680F3098804480078C00762
:1001200014BF0220032080F31488704780D5000894
:10013000DFF818C0EFF305831B0618BF6047EFF325
:100140001483DB0708BF604700DF7047C1C20008A7
:10015000DFF818C0EFF305831B0618BF6047EFF305
:100160001483DB0708BF604700DF7047CDC4000879
:10017000EFF30980816911F8021C39BB90E80F1078
:10018000E047EFF3098C194B93E80600914218D031
:1001900059B10CB44FF0010381F826302CE9F00F6F
:1001A000C1F82CC00CF0D4FB0CBC1A60D2F82CC0E7
:1001B000BCE8F00F92F826308CF309881BB192F856
:1001C0002500CCF800006FF0020E704710B5084A09
:1001D0001268914209D8074C54F8214090E80F105A
:1001E000A047EFF3098C8CE80F0010BDF800002049
:1001F000700B0008700B00080CF046FA114B93E8E6
:10020000060091421BD00CB44FF0000381F8263059
:10021000EFF3098C2CE9F00FC1F82CC00CF098FB1F
:100220000CBC1A60D2F82CC0BCE8F00F8CF3098823
:1002300092F826301BB192F82530CCF800306FF0E0
:10024000020E7047F80000200CF068FCD6E70000B2
:100250000CF034F80CF062FCD0E700000648804750
:1002600006480047FEE7FEE7FEE7FEE7FEE7FEE79B
:10027000FEE7FEE7FEE7FEE7C19F0008F500000885
:10028000D2B201E000F8012B491EFBD270470022D8
:10029000F6E710B513460A4604461946FFF7F0FF85
:1002A000204610BD30B505462A460B4612F8010B14
:1002B00013F8014B08B1A042F8D01CB1002802D0BD
:1002C0006D1CF1E7284630BD421C10F8011B0029C7
:1002D000FBD1801A704710B5002200E0521C835CED
:1002E0008C5CA34201D1002BF8D1D8B2E1B2401A04
:1002F00010BD034611F8012B00F8012B002AF9D19B
:100300001846704780EA010210B502F00043400031
:1003100022D04A001FD0010E01EB1261C0F356003B
:10032000C2F3560240F4000042F40002A0FB022097
:1003300000047F39140400D0401C50EA124001D45C
:100340004000491EC2B20C0604EBD010401C40080D
:10035000802A02D003E0002010BD20F00100002917
:1003600000DA0020184310BD30B480EA010202F028
:10037000004530F0004221F0004013D090B1C30D91
:10038000D40DC2F31601C0F31600E41A41F40001C3
:1003900040F400027D34914201D3641C00E0490026
:1003A000002C02DA30BC002070474FF4000000231C
:1003B000914201D3891A034340084FEA4101F7D122
:1003C00051B1914202D14FF0004105E002D24FF00D
:1003D000010101E06FF0010103EBC450284430BC7F
:1003E00000F0AFBA2DE9FE4F804681EA0300C00F4E
:1003F0000C46009021F0004123F00045B8EB0200CC
:10040000A94105D24046214690461C460B4602466D
:1004100023F00040104347D0270DC7F30A00C3F371
:100420000A510290401A019040286BDAC3F313007E
:1004300040F4801B0098924620B10023D2EB030ABF
:1004400063EB0B0B01985946C0F14002504600F097
:1004500047FA06460D4650465946019A00F05FFAA3
:1004600010EB08006141002487EA115284EAE77327
:100470001A4340D0009A62B3019A012A4FEA075208
:1004800015DC001B61EB02014FF0004202EA07524B
:10049000CDE90042001C41F5801132462B4600F0A8
:1004A00096FA03B0BDE8F08F40462146F9E7001BFD
:1004B00061EB0201001C41F5801300185B4120181C
:1004C000A2F5001747EB030140EAD570B6196D415C
:1004D00011E06D084FEA360645EAC0754FEA07524B
:1004E000001B61EB0201001C41F5801149084FEA35
:1004F00030000019514132462B4603B0BDE8F04FA1
:1005000000F056BA0098012240000023D0EB02020E
:1005100063EBE073009821464FEAE074B8EB00000B
:1005200061EB0401E9E783F000435BE781F0004100
:1005300058E72DE9FE4F81EA030404F0004421F05E
:10054000004100944FF0000B23F0004350EA0104F7
:100550005ED052EA03045BD0C3F30A54C1F30A55D8
:100560002C44A4F2F3340194A0FB0254C1F3130110
:1005700041F48011C3F3130343F4801301FB0244DD
:1005800000FB034E840A970A44EA815447EA8357E2
:10059000A4FB076802958D0A05FB07854FEA932C9B
:1005A00004FB0C542705029D4FEA065847EA16370C
:1005B000B5EB08056EEB070C870E920E47EA811724
:1005C00042EA8312A7FB0201B6EB0B0164EB0004C5
:1005D0002B0D43EA0C335E1844EB1C50DA465146AF
:1005E000E7FB0201C5F313044FEA0B3343EA14534C
:1005F0004FEA0432019C43EA0603A4F10C0402947E
:10060000009CCDE900B400F0E2F903B0BDE8F08F42
:1006100000200146F9E72DE9F04D81EA030404F0DA
:10062000004B21F0004514464FF0000A23F0004132
:1006300050EA050220D054EA01021DD0C5F30A5742
:100640000246C5F31303C1F31300C1F30A5640F485
:10065000801543F48013A7EB0608101BD64608F25A
:10066000FD3873EB050002D308F1010801E0921890
:100670005B41B8F1000F03DA00200146BDE8F08DC0
:1006800000204FF48011064684460EE0171B73EBE2
:10069000050705D3121B63EB050306434CEA010C67
:1006A00049084FEA300092185B4150EA0107EDD14A
:1006B00052EA030012D082EA040083EA05010843EB
:1006C00005D0101BAB4106D20122002306E0002218
:1006D0004FF0004302E06FF0010253101AEB0600E6
:1006E0004CEB085110EB0A0041EB0B01BDE8F04D5B
:1006F00000F05EB9C10F80EAE0700844CA07962393
:10070000002100F027B996230022114600F022B9FB
:100710000EB540F2334102910021CDE900110A46A5
:100720000B4600F054F903B000BD00F0004220F089
:100730000040C10DC0F3160040F400007F2901DA2B
:1007400000207047962903DCC1F19601C84001E002
:1007500096398840002AF4D04042704720F000408B
:10076000C10DC0F3160040F400007F2901DA00201B
:100770007047962903DCC1F19601C840704796394D
:100780008840704770B5C1F30A5201F0004500245B
:10079000C1F3130140F2FF3341F480119A4201DAB0
:1007A000002070BD40F233439A42A2F2334203DC90
:1007B000524200F0A4F800E090402C43F1D04042B7
:1007C00070BDC1F30A5210B5C1F3130140F2FF33FB
:1007D00041F480119A4201DA002010BD40F2334307
:1007E0009A42A2F2334203DC524200F088F810BD74
:1007F000904010BD00F0004230F000400AD0C10D22
:1008000001F56071C0F3160042EA0151C2084007C9
:100810001143704700200146704701F0004330B497
:1008200021F0004150EA010206D00A0DA2F56072E3
:10083000C1F31301002A02DC30BC00207047440FD2
:1008400044EAC104C100E01830BC00EBC25000F023
:1008500078B830B50B46014600202022012409E07B
:1008600021FA02F59D4205D303FA02F5491B04FA69
:1008700002F52844151EA2F10102F1DC30BD2DE97C
:10088000F05F0546002092469B4688460646814614
:1008900040241BE0284641464746224600F02FF8F8
:1008A00053465A46C01A914110D311461846224663
:1008B00000F016F82D1A67EB01084F46224601207A
:1008C000002100F00DF817EB00094E41201EA4F1A5
:1008D0000104DFDC484631462A464346BDE8F09F26
:1008E000202A04DB203A00FA02F1002070479140F0
:1008F000C2F1200320FA03F3194390407047202AE5
:1009000004DB203A21FA02F00021704721FA02F3B9
:10091000D040C2F120029140084319467047202A76
:1009200006DBCB17203A41FA02F043EAE07306E017
:1009300041FA02F3D040C2F1200291400843194627
:1009400070470029A8BF7047401C490008BF20F02D
:100950000100704710B4B0FA80FC00FA0CF050EAC5
:10096000010404BF10BC704749B1CCF1200421FA46
:1009700004F411FA0CF118BF012121430843A3EB41
:100980000C01CB1D4FEA00614FEA102042BF00204E
:1009900010BC704700EBC35010440029A4BF10BC2A
:1009A0007047401C490008BF20F0010010BC704790
:1009B00010B5141E73F1000408DA401C41F1000167
:1009C00092185B411A4301D120F0010010BD2DE9BE
:1009D000F04D92469B4611B1B1FA81F202E0B0FAB5
:1009E00080F220329046FFF77BFF04460F4640EA34
:1009F0000A0041EA0B0153465A46084313D01146F8
:100A000053EA010019D0C8F140025046FFF777FFC2
:100A100005460E46504659464246FFF761FF0843D9
:100A200005D0012004E020463946BDE8F08D0020C5
:100A3000054346EAE0762C4337430A986305E40A07
:100A4000A0EB08000022FD0A44EA47540A3002D510
:100A500000200146E9E7010510196941DDE9084573
:100A600000196941BDE8F04DA2E770B521F00043DF
:100A700003430CD0C1F30A550024D5EB040564EB05
:100A80000403D617AD1AB34102DB0020014670BD46
:100A9000201841EB025170BD0EB5C10F80EAE07025
:100AA0000844CA07002140F233438DE80E000A468D
:100AB0000B46FFF78CFF03B000BDC1F30A52C1F330
:100AC000130140F2FF3341F480119A4202DA002010
:100AD0000146704740F233439A42A2F2334202DCAD
:100AE0005242FFF70CBFFFF7FBBE000030B5041EFB
:100AF00071F1000404DB4FF00044404264EB01015B
:100B0000141E73F1000405DB1C464FF000435242F3
:100B100063EB04038B4208BF824230BD30B5041E34
:100B200071F1000404DB4FF00044404264EB01012A
:100B3000141E73F1000405DB1C464FF000435242C3
:100B400063EB0403994208BF904230BD064C074D49
:100B500006E0E06840F0010394E80700984710348D
:100B6000AC42F6D3FFF7CAFA50F8000870F8000854
:100B70000000000010B594B004460121080604F0FE
:100B80003FFE4C4801F0C6F84B4801904B4802909C
:100B9000002003901E2004900020059080200690E5
:100BA00040000790800008902020099000020A90E1
:100BB00000200B9001A93F4801F071F9022001F0DB
:100BC0008FF8012202213B4801F060F90B208DF8DB
:100BD000000001208DF803000E208DF802000C208B
:100BE0008DF80100684604F0BBF90121314801F09D
:100BF00085F8012004F0EEFE03200C908DF83400FF
:100C000000208DF837000CA92D4801F0EDFF00BF42
:100C1000212004F0C5FE0028FAD00121480204F08A
:100C20001FFE00200E9001208DF83C008DF83D0045
:100C300000201090129003208DF84C000EA91E4841
:100C4000583800F07FF80723012211211A4858383C
:100C500000F0A2F80723022200211748583800F0BC
:100C60009BF80723032201211348583800F094F819
:100C700001211148583800F03BF801210E4858383E
:100C800000F02BF8012000F039F901210A4858380A
:100C900000F018F801E002F0CDFF40210648583876
:100CA00000F031F80028F6D00348583800F020F959
:100CB00014B010BD0860024058240140C422002036
:100CC0000000024021B1826842F00102826003E02C
:100CD000826822F001028260704721B1826842F48A
:100CE0008072826003E0826822F4807282607047C2
:100CF00021B1826842F40072826003E0826822F4CB
:100D00000072826070470246002013680B400BB1EE
:100D1000012000E0002070471CB500208DF8040081
:100D200003208DF8050000208DF807008DF80600DF
:100D3000022000906946024801F056FF1CBD0000E9
:100D40000000024030B50246002000235068104CDD
:100D500020400D790C6844EA0524204350609068D7
:100D60000C4C2040D1E903542C438D682C434D7921
:100D700044EA450420439060106B20F0F8700C7D2D
:100D8000641EE4B2234340EA0350106330BD000008
:100D9000FFFEFFFCFDF7FFC0F0B504460D46002046
:100DA00000211D2D11DDE06DA5F11E0606EB4607A5
:100DB000072606FA07F18843A5F11E0606EB46064C
:100DC00003FA06F10843E06534E0132D11DDE06815
:100DD000A5F1140606EB4607072606FA07F1884335
:100DE000A5F1140606EB460603FA06F10843E06097
:100DF00020E0092D11DD2069A5F10A0606EB460762
:100E0000072606FA07F18843A5F10A0606EB46060F
:100E100003FA06F1084320610CE0606905EB450721
:100E2000072606FA07F1884305EB450603FA06F1A3
:100E300008436061072A0FDA206C561E06EB86070E
:100E40001F2606FA07F18843561E06EB860605FAAA
:100E500006F1084320644AE00D2A0FDAE06BD61F42
:100E600006EB86071F2606FA07F18843D61F06EB16
:100E7000860605FA06F10843E06338E0132A11DA22
:100E8000A06BA2F10D0606EB86071F2606FA07F1F6
:100E90008843A2F10D0606EB860605FA06F1084323
:100EA000A06324E0192A11DA606BA2F1130606EBA5
:100EB00086071F2606FA07F18843A2F1130606EB00
:100EC000860605FA06F10843606310E0206BA2F184
:100ED000190606EB86071F2606FA07F18843A2F1DA
:100EE000190606EB860605FA06F108432063F0BDF5
:100EF000816841F0804181607047000030B107494E
:100F0000096841F40001054A116005E003490968D8
:100F100021F40001014A11607047000004270140DC
:100F200000B585B04020019000208DF808000C200D
:100F30008DF8090000208DF80A0017208DF80000B8
:100F40000D208DF8010000208DF802008DF80300BF
:100F500001A801F085FD684604F002F880200390A6
:100F600001208DF8110000208DF810008DF812007E
:100F700002208DF8130003A90B4801F035FE4FF451
:100F80008070039003A9084801F02EFE00208DF820
:100F9000100002208DF813004020039003A902489E
:100FA00001F022FE05B000BD000802402DE9F04727
:100FB00005460E4617469846DDF82090002409E0C5
:100FC000E819C2B23019C1B24B46284601F066FAA0
:100FD000601CC4B24445F3DBBDE8F08770B505463C
:100FE0000C4604E000F00AF820460AF0F9FD28005B
:100FF000A5F10105F6D170BD00BFFEE71CB54FF4A9
:101000000070009001208DF804008DF8050000208C
:101010008DF8060001208DF807006946064801F0AA
:10102000E3FD4FF40071044801F04EFE32200AF057
:10103000D7FD00F08DF91CBD00040240F0B5044658
:101040001546002023E0265C3211265C06F00F03D3
:101050003032392A03DDD61D01F8106001E001F8B5
:10106000102003F13006F3B2392B05DDDE1D012718
:1010700007EB4007CE5503E0012606EB40068B55F3
:101080000026022707EB4007CE55461C30B2A84287
:10109000D9DBF0BD1CB54FF40040009001208DF865
:1010A000040000208DF8060002208DF807008DF85E
:1010B00005006946394801F097FD4FF40041374873
:1010C00001F000FE4FF40050009001208DF8040064
:1010D00000208DF8060002208DF807008DF805002D
:1010E00069462E4801F080FD4FF400512B4801F075
:1010F000E9FD4FF48040009000208DF804000220AC
:101100008DF8070000208DF8060002208DF80500FC
:101110006946224801F068FD4FF48050009001209C
:101120008DF8040000208DF806008DF807000220DD
:101130008DF805006946194801F056FD4FF48051BD
:10114000164801F0BFFD4FF40060009001208DF8BB
:10115000040000208DF8060002208DF807008DF8AD
:10116000050069460D4801F03FFD4FF400610B4852
:1011700001F0A8FD0120009000208DF8040002205D
:101180008DF8050001208DF8070000208DF806007D
:101190006946024801F028FD1CBD00000004024021
:1011A0002DE9F0470126012702F026FF2F4A0721EB
:1011B000002001F057FE53E0012F23D100272C48D7
:1011C00002F0B4F80546C5F1800000EBD071C1F320
:1011D00047094FF0190A264A5146484601F013FEC6
:1011E000D1464FF0300A234A5146484601F00BFEE3
:1011F0004FF04B0900BF204A5146484601F003FE1C
:1012000002F004FF02F016FD00224FF6FF710C20E1
:10121000DFF868C000DFDFF868C000DF1949086048
:101220000846006804281BD117480078FF2817D00B
:10123000FFF7E4FE14480478FF2013490870102CCF
:1012400002D0202C0AD102E00026B04607E00020A0
:101250000E49088000264FF0010800E000BF00BFE3
:10126000002EA9D14046BDE8F08700005CF50008DB
:1012700084EE0008ACEE000898EE000891C4000867
:10128000D9C30008EC0000205D0000208800002089
:1012900010B500BF40210C48FFF735FD0028F9D0FC
:1012A00000210948FFF70EFD00214FF4007004F003
:1012B000D7FA00210448FFF705FD002004F08AFB5F
:1012C000FFF72AFD10BD00000024014010B50020EA
:1012D0000449087001223821024801F055FCFF2022
:1012E00010BD0000BC00002010B5002004490870AB
:1012F00001222F21024801F047FCFF2010BD000011
:10130000AC00002010B500200449087001223921EA
:10131000024801F039FCFF2010BD0000B40000209D
:101320001CB54FF48040009000208DF8040002208E
:101330008DF8050000208DF8060002208DF80700CA
:101340006946024801F050FC1CBD00000008024044
:101350001CB54FF40070009000208DF804000220AE
:101360008DF8050000208DF8060002208DF807009A
:101370006946024801F038FC1CBD00000004024030
:101380001CB54FF40040009000208DF804000220AE
:101390008DF8050000208DF8060002208DF807006A
:1013A0006946024801F020FC1CBD00000008024014
:1013B0001CB51020009000208DF8040002208DF84C
:1013C000050000208DF8060002208DF80700694610
:1013D000024801F009FC02F0E3FA1CBD00080240DB
:1013E0001CB52020009000208DF8040002208DF80C
:1013F000050000208DF806008DF8070069460248B8
:1014000001F0F2FB1CBD00000004024010B50146D3
:101410000022AA23194C2370D1236370184B9B78A8
:10142000A3700A23E370164B1B792371144B5B796D
:101430006371134B9B79A371114BDB79E37100232B
:101440002372104B1B7863720F4B1B78A37200231F
:10145000E372AA23237323465973002005E0074B48
:101460001B5C1344DAB2431CD8B20E28F7DB034BE3
:101470009A735523014CE37310BD00002033002004
:1014800000330020C8000020C900002010B501462C
:101490000022AA231A4C2370D1236370194B9B7826
:1014A000A3700A23E370174B1B792371154B5B79EB
:1014B0006371144B9B79A371124BDB79E371124B6F
:1014C0001B782372114B1B786372114B1B78A3722C
:1014D000104B1B78E372AA23237323465973002011
:1014E00005E0074B1B5C1344DAB2431CD8B20E284C
:1014F000F7DB034B9A735523014CE37310BD0000D7
:101500002033002000330020C3000020C40000204E
:10151000C5000020C60000200021AA221C4B1A7022
:10152000D2225A701B4A92789A700A22DA70194AAB
:1015300012791A71174A52795A71164A92799A7128
:10154000144AD279DA71134A527A12B980221A7285
:1015500002E0EE220E4B1A720F4A12780C4B5A72AE
:101560000E4A12789A720022DA721A735A730020A5
:1015700005E0074A125C0A44D1B2421CD0B20E28E0
:10158000F7DB034A91735522014BDA737047000071
:101590002033002000330020C8000020C9000020B4
:1015A0000021AA22164B1A70D4225A70154A92783A
:1015B0009A700A22DA70134A12791A71114A527912
:1015C0005A71104A92799A710E4AD279DA710E4A9A
:1015D00012781A7200225A729A72DA721A735A7355
:1015E000002005E0064A125C0A44D1B2421CD0B287
:1015F0000E28F7DB024A91735522014BDA737047CC
:101600002033002000330020C70000200021AA2240
:10161000194B1A70D1225A70184A92789A700A227D
:10162000DA70164A12791A71144A52795A71134AA9
:1016300092799A71114AD279DA71114A12781A7232
:10164000104A12785A72104A12789A720F4A127817
:10165000DA7200221A735A73002005E0064A125CFF
:101660000A44D1B2421CD0B20E28F7DB024A917371
:101670005522014BDA7370472033002000330020DD
:10168000C3000020C4000020C5000020C6000020C8
:101690000021AA22164B1A70D3225A70154A92784A
:1016A0009A700A22DA70134A12791A71114A527921
:1016B0005A71104A92799A710E4AD279DA710E4AA9
:1016C00012781A7200225A729A72DA721A735A7364
:1016D000002005E0064A125C0A44D1B2421CD0B296
:1016E0000E28F7DB024A91735522014BDA737047DB
:1016F0002033002000330020C700002010B5002256
:10170000AA23844C2370D02363703023A3700A2350
:10171000E370814B1B681B0E23717F4B1B681B0CF6
:1017200063717D4B1B881B0AA3717B4B1B78E37194
:101730000B281BD2DFE800F0061B31465BDD869CE0
:10174000B2C87100734B18720023724C6372724BF3
:101750001B681B0EA372704B1B681B0CE3726E4B55
:101760001B881B0A23736C4B1B786373C1E0694BA6
:1017700018726A4B1B78674C6372674B1B681B0EB1
:10178000A372654B1B681B0CE372634B1B881B0A1F
:101790002373614B1B786373ABE05E4B18720023BD
:1017A0005C4C63725C4B1B681B0EA3725A4B1B682C
:1017B0001B0CE372584B1B881B0A2373564B1B7878
:1017C000637396E0534B18720023524C6372544B70
:1017D0001B681B0EA372524B1B681B0CE372504B11
:1017E0001B881B0A23734E4B1B78637381E0494BA4
:1017F00018724C4B1B78474C6372494B1B681B0E8D
:10180000A372474B1B681B0CE372454B1B881B0ADA
:101810002373434B1B7863736BE03E4B18720023BA
:101820003C4C63723E4B1B681B0EA3723C4B1B6807
:101830001B0CE3723A4B1B881B0A2373384B1B7833
:10184000637356E0334B1872374B1B78314C63721D
:10185000334B1B681B0EA372314B1B681B0CE372CE
:101860002F4B1B881B0A23732D4B1B78637340E09F
:10187000284B18722D4B1B78264C6372264B1B6825
:101880001B0EA372244B1B681B0CE372224B1B889C
:101890001B0A2373204B1B7863732AE01D4B1872BD
:1018A000204B1B781B4C63721D4B1B681B0EA372D5
:1018B0001B4B1B681B0CE372194B1B881B0A237301
:1018C000174B1B78637314E0124B18720023114CF2
:1018D0006372134B1B681B0EA372114B1B681B0C0E
:1018E000E3720F4B1B881B0A23730D4B1B7863732A
:1018F00000BF00BF002105E0064B5B5C1344DAB279
:101900004B1CD9B20E29F7DB024B9A735523014CBD
:10191000E37310BD403300209C00002069000020CC
:10192000900000208C0000209400002096000020F1
:1019300070B585B000230022002100200BE0794C17
:10194000245C04F0010424B1C4B20DF80240541C1C
:10195000E2B2441CA0B21428F1DBAA24724D2C7010
:10196000D0246C702024AC7002EB82040D2505EBB2
:1019700044046D4DEC706D4C2468240E2C716B4C3E
:101980002468240C6C71694C2488240AAC71674C5F
:101990002478EC71664C24782C72654C64786C72F7
:1019A000634CA478AC72624CE478EC72614C24789D
:1019B000614D2D7844EAC5145B4D2C735F4C24783F
:1019C0006C735F4C2478AC735E4C2478EC732C46BB
:1019D0002274002087E01DF800105B4C54F8214071
:1019E000240E00EB8005102606EB45056D1C4E4EBF
:1019F0007455554C54F82140C4F3074500EB80045E
:101A0000102606EB4404A41C474E35554E4C34F8C2
:101A10002140C4F3072500EB8004102606EB4404A4
:101A2000E41C414E3555484C14F8215000EB80041D
:101A3000102606EB4404241D3B4E355501EB4104B2
:101A4000424D15F8145000EB8004102606EB4404B8
:101A5000641D354E355501EB41043C4D05EB440406
:101A6000657800EB8004102606EB4404A41D2E4E7E
:101A7000355501EB4104354D05EB4404A57800EBE9
:101A80008004102606EB4404E41D274E355501EB77
:101A900041042E4D05EB4404E57800EB800410264C
:101AA00006EB44040834204E355501EB4104274D24
:101AB00005EB4404257900EB8004102606EB440472
:101AC0000934194E355501EB4104204D05EB440412
:101AD000657900EB8004102606EB44040A34124EAC
:101AE0003555441CA0B29042FFF675AF002005E0CA
:101AF0000D4C245C1C44E3B2441CA0B202EB8204F3
:101B0000112505EB44048442F2DC0446451CA8B2CE
:101B1000054D2B5555260446451CA8B2024D2E55A1
:101B200005B070BD90380020403300209C0000209C
:101B30006A00002071000020720000207000002068
:101B4000A80000206E00002050370020A43800209C
:101B50001CB54FF48070009000208DF804008DF8C3
:101B6000050001208DF8060000208DF80700694669
:101B7000014801F039F81CBD000402401CB50820E2
:101B8000009000208DF804008DF8050001208DF8EC
:101B9000060000208DF807006946024801F024F88D
:101BA0001CBD0000000402401CB540200090002035
:101BB0008DF804008DF8050001208DF80600002046
:101BC0008DF807006946024801F00EF81CBD0000C0
:101BD0000004024030B504460425680300F0ECFF21
:101BE0000546042D01D100202060284630BD0000AC
:101BF00070B504460D460426700300F0DDFF06466E
:101C0000042E0AD10648006820F480700449086058
:101C10002560700300F0D0FF0646304670BD00001E
:101C2000043C02402DE9F04104460D4604260027FD
:101C30004FF00008700300F0BFFF0646042E1CD1D1
:101C40002DB12570400300F0B7FF064615E024F0E3
:101C50000308D8F80070A007C10EFF2000FA01F8B1
:101C600027EA080724F00300FFF7B4FF064624F034
:101C700003003946FFF7BCFF06463046BDE8F08159
:101C80000548006800F0010028B104480249083105
:101C90000860034808607047043C0240EFCDAB8900
:101CA0000504030229B1064A52680243044B5A60F4
:101CB00004E0034A52688243014B5A6070470000B7
:101CC000002004E010B5022000F0CAF810B1012095
:101CD00002490870022000F003F810BD3000002017
:101CE00000F0805111B90349486001E002490860E1
:101CF00070470000006002400464024021B10268A5
:101D000042F00102026004E002684FF6FE731A40DE
:101D10000260704701684FF6FE72114001600021B9
:101D2000016041608160C1604B49884208D14A49E5
:101D30000839496841F00F01474A083A51608AE082
:101D400045491431884208D143490839496841F06E
:101D5000F001414A083A51607DE03F49283188420C
:101D600008D13D490839496841F470613A4A083A56
:101D7000516070E038493C31884208D13649083911
:101D8000496841F47041344A083A516063E032498D
:101D90005031884208D130490839496841F47021EE
:101DA0002D4A083A516056E02B496431884208D1E7
:101DB00029490839496841F47001274A083A5160B5
:101DC00049E025497831884208D1234908394968D2
:101DD00041F07061204A083A51603CE01F49884256
:101DE00006D1011F096841F00F01021F116032E0A6
:101DF0001A491431884208D11849091F096841F06D
:101E0000F001164A121F116025E01449283188425A
:101E100008D11249091F096841F470610F4A121F65
:101E2000116018E00D493C31884208D10B49091F67
:101E3000096841F47041094A121F11600BE007491B
:101E40005031884207D10549091F096841F47021C2
:101E5000024A121F11607047086002400864024085
:101E600001460020002201F0805313B9054B1A6887
:101E700001E0054B1A6802EA01030BB1012000E002
:101E80000020704700600240006402401AB10368FD
:101E90000B43036002E003688B430360704710B597
:101EA0000022026847F6F0739A430C6A8B6823435A
:101EB0000C6923434C6923438C692343CC69234336
:101EC0004C6A23438C6A23431A430260CB68436005
:101ED0000B6883604B68C36010BD70472DE9F04705
:101EE0000126012702F088F83D4A0721002000F072
:101EF000B9FF6FE0012F23D100273A4801F016FA0D
:101F00000546C5F1800000EBD071C1F347094FF0E1
:101F1000190A354A5146484600F075FFD1464FF040
:101F2000300A324A5146484600F06DFF4FF04B09E7
:101F300000BF2F4A5146484600F065FF02F066F8A0
:101F400001F078FE00224FF6FF710C20DFF8A4C0EC
:101F500000DFDFF8A4C000DF2849086008460068F9
:101F6000042837D126480078FF2833D0FFF746F8F9
:101F700023480478FF2022490870082C27D006DC6B
:101F8000012C21D0022C20D0042C21D11EE0102CB9
:101F900002D0202C1CD102E00026B04619E01948DE
:101FA00001781948FEF773F900201849087050228B
:101FB0008A21154800F0E8FD0122E321134800F0D2
:101FC000E3FD0026B04604E003E002E001E000E0AB
:101FD00000BF00BF002E8DD14046BDE8F087000055
:101FE000DCF0000884EE0008C0EE0008E8EE00080F
:101FF000D4EE000891C40008D9C30008EC0000200A
:102000005D00002044EE0008A0370020BE00002044
:102010002DE9F0470126012701F0EEFF3E4A072196
:10202000002000F01FFF71E0012F23D100273B4863
:1020300001F07CF90546C5F1800000EBD071C1F3D9
:1020400047094FF0190A364A5146484600F0DBFE70
:10205000D1464FF0300A334A5146484600F0D3FE8D
:102060004FF04B0900BF304A5146484600F0CBFEC6
:1020700001F0CCFF01F0DEFD00224FF6FF710C20D5
:10208000DFF8A8C000DFDFF8A8C000DF294908603A
:1020900008460068042839D127480078FF2835D041
:1020A000FEF7ACFF24480478FF2023490870082C71
:1020B00029D006DC012C23D0022C22D0042C23D1E1
:1020C00020E0102C02D0202C1ED102E00026B046C9
:1020D0001BE01A4801781A48FEF7D9F80020194980
:1020E0000870502240F23511154800F04DFD0122D4
:1020F00040F28511134800F047FD0026B04604E089
:1021000003E002E001E000E000BF00BF002E8BD141
:102110004046BDE8F0870000DCF0000884EE0008CF
:10212000C0EE0008E8EE0008D4EE000891C40008F4
:10213000D9C30008EC0000205D00002044EE000838
:1021400040380020C00000202DE9F047012601277B
:1021500001F052FF3D4A0721002000F083FE6FE0AE
:10216000012F23D100273A4801F0E0F80546C5F1D8
:10217000800000EBD071C1F347094FF0190A354ACE
:102180005146484600F03FFED1464FF0300A324AF1
:102190005146484600F037FE4FF04B0900BF2F4A2A
:1021A0005146484600F02FFE01F030FF01F042FD9D
:1021B00000224FF6FF710C20DFF8A4C000DFDFF82B
:1021C000A4C000DF2849086008460068042837D109
:1021D00026480078FF2833D0FEF710FF2348047804
:1021E000FF2022490870082C27D006DC012C21D0C2
:1021F000022C20D0042C21D11EE0102C02D0202C47
:102200001CD102E00026B04619E0194801781948AF
:10221000FEF73DF800201849087050223A21154871
:1022200000F0B2FC0122E221134800F0ADFC0026D0
:10223000B04604E003E002E001E000E000BF00BFC0
:10224000002E8DD14046BDE8F08700004CF000081C
:1022500084EE0008C0EE0008E8EE0008D4EE0008A6
:1022600091C40008D9C30008EC0000205D000020E4
:1022700044EE000850370020BD0000202DE9F04753
:102280000126012701F0B8FE3D4A0721002000F099
:10229000E9FD70E0012F23D100273A4801F046F80C
:1022A0000546C5F1800000EBD071C1F347094FF03E
:1022B000190A354A5146484600F0A5FDD1464FF06F
:1022C000300A324A5146484600F09DFD4FF04B0916
:1022D00000BF2F4A5146484600F095FD01F096FE9A
:1022E00001F0A8FC00224FF6FF710C20DFF8A4C01B
:1022F00000DFDFF8A4C000DF284908600846006856
:10230000042838D126480078FF2834D0FEF776FE1E
:1023100023480478FF2022490870082C28D006DCC6
:10232000012C22D0022C21D0042C22D11FE0102C11
:1023300002D0202C1DD102E00026B0461AE0194838
:1023400001781948FDF7A3FF0020184908705022B2
:10235000E421154800F018FC01224FF49A7113484B
:1023600000F012FC0026B04604E003E002E001E0C9
:1023700000E000BF00BF002E8CD14046BDE8F087D2
:10238000DCF0000884EE0008C0EE0008E8EE00086B
:10239000D4EE000891C40008D9C30008EC00002066
:1023A0005D00002044EE0008F0370020BF00002050
:1023B0002DE9F04F8DB0814664200B9002200A90E9
:1023C000162009900B20089001200B2316220221D1
:1023D0000090642000F0BDF90120062303220521AE
:1023E00000907A20FEF7E2FDB9F1640F01DD4FF0B5
:1023F000640924480078FEF78BF90746224A234BEC
:10240000FEF797F8CDE900014846FEF781F9074647
:102410001D4A1F4BFEF78DF80546DDE90023FDF749
:10242000E1FFCDE90201FEF7CCF9C0B20590FEF75D
:102430006FF9184A184BCDE90601FEF77AF8824683
:10244000FEF7BFF9C4B201200B23224602210090FF
:102450006420FEF7ABFDC4F1160002280BDD00205E
:10246000C4F11401CAB204F165010090C8B20A2394
:102470000321FEF79BFD034880F800900DB0BDE8F6
:10248000F08F0000580000209A9999999999E93F96
:102490009999C93F295C8FC2F528CC3F2DE9F041BD
:1024A0000446884615461E46AC4202DD2F462546A8
:1024B0003C4600BF3246414620460AF0F5FC601C0F
:1024C000C4B2A542F6DABDE8F08100002DE9F04F74
:1024D0008BB04FF0000B01200190CEE001F08CFD9D
:1024E00001F0A8FB00F038FF00F010FD664908700D
:1024F000664A0021022000F086FC6420FFF758FFA6
:102500006348007800F04EF9022410200A906148D8
:1025100061A1026802A808F0BBFD614A20460A9941
:1025200000F071FC2044C4B202AA20460A9900F0CF
:10253000C8FC022420200A905A4802785AA102A816
:1025400008F0A6FD5A4A20460A9900F05CFC204497
:10255000C4B202AA20460A9900F0B3FC2044C4B2D7
:1025600054A220460A9900F04EFC2044C4B252A264
:1025700020460A9900F0A5FC502420200A904F48DC
:102580000078FEF7C5F8074600224D4BFEF743F8EA
:1025900005462A460B464BA102A808F079FD022405
:1025A00030200A90494A20460A9900F02CFC204429
:1025B000C4B247A220460A9900F083FC2044C4B26A
:1025C000444A20460A9900F01EFC402430200A901C
:1025D00041A220460A9900F016FC2044C4B23748B4
:1025E00002783FA102A808F053FD02AA20460A99EA
:1025F00000F009FC2044C4B201F008FD00224FF4B1
:102600007A710C20DFF8E0C000DFDFF8E0C000DF07
:102610008146B9F1040F27D1354890F800A0FF207A
:1026200033490870BAF1080F1CD009DCBAF1010F68
:1026300015D0BAF1020F13D0BAF1040F13D110E084
:10264000BAF1100F03D0BAF1200F0CD106E0FEF75B
:10265000D5FC00F04FFA4FF0000B04E003E002E07D
:1026600001E000E000BF00BF0BF1010000F0FF0B34
:10267000BBF10A0F01DB00200190019800287FF4D4
:102680002DAF0BB0BDE8F08F6F000020EAED000821
:102690006E0000209C0000203A25303964000000C4
:1026A000FEED0008690000203A2530326400000089
:1026B00008EE0008A1E600002020000070000020C5
:1026C00000002440252E31662020200012EE000854
:1026D0003A00000030EE00082042543A00000000AA
:1026E000253032645600000091C40008D9C30008A8
:1026F0005D0000202DE9FF5F0746884691460E9C4D
:10270000002521E014F801BB4FF0000A002617E075
:10271000BAF1080F03D114F801BB4FF0000A0BF017
:10272000800208EB0501B8190AF0BEFB0AF10100AE
:1027300000F0FF0A4FEA4B604FEA106B701CC6B204
:102740004E45E5DB681CC5B203988542DADBBDE87F
:10275000FF9F2DE9F04104460D4616461F46DDF861
:102760001880A019C2B2434629462046FFF796FEBC
:10277000A019C2B2E819C1B243462046FFF78EFE47
:10278000E819C2B243462946204600F0B1F8E919DB
:10279000CAB2A119C8B24346294600F0A9F8BDE85B
:1027A000F08100002DE9F04F87B08146662005904A
:1027B00012200490052003900C20029049480078D4
:1027C000FDF7A6FF07464FF06632474BFDF7B1FE17
:1027D00005460E464846FDF79BFF07464FF033324D
:1027E000424BFDF7A6FE2A463346CDE90001FDF730
:1027F000F9FD8246FDF7E5FFC4B2142C1ADB1F2C4D
:1028000018DC0120042305221A2100906620FEF71F
:10281000CDFB012008230522162100906E20FEF733
:10282000C5FB01200C230522122100907620FEF723
:10283000BDFB51E00A2C1ADB142C18DA012004230A
:1028400005221A2100906620FEF7B0FB0120082324
:102850000522162100906E20FEF7A8FB00200C2315
:102860000522122100907620FEF7A0FB34E0022C16
:102870001ADB0A2C18DA0120042305221A21009001
:102880006620FEF793FB0020082305221621009006
:102890006E20FEF78BFB00200C23052212210090F6
:1028A0007620FEF783FB17E00020042305221A217F
:1028B00000906620FEF77AFB0020082305221621EF
:1028C00000906E20FEF772FB00200C2305221221DF
:1028D00000907620FEF76AFB024880F8009007B06F
:1028E000BDE8F08F590000206666E63F3333D33FE2
:1028F0002DE9F04180460C4615461E46AC4202DDED
:102900002F4625463C4600BF3246214640460AF047
:10291000CBFA601CC4B2A542F6DABDE8F081000033
:1029200010B5012000F090F820B101200249087094
:1029300000F084F810BD00005F00002010B50220F8
:1029400000F082F828B1012002490870022000F04E
:1029500075F810BD6000002010B5042000F074F878
:1029600060B1012006490870002006490860064948
:10297000086006490860042000F060F810BD0000FF
:102980005E00002074000020780000207C00002001
:1029900010B5402000F058F8002844D0012022490A
:1029A000087003F0E9FA2149088003F005FB20498B
:1029B0000870084600786F2818D006DC642809D013
:1029C0006C280BD06D281DD10CE0722812D0752810
:1029D00018D113E002201749087017E004201549A8
:1029E000087013E01020134908700FE020201149EF
:1029F00008700BE008200F49087007E001200D491E
:102A0000087003E0FF200B49087000BF00BF0948B1
:102A10000078FF2804D008480168042009F0F0F885
:102A2000402000F00BF810BD220000202400002000
:102A3000260000205D0000203C00002001490860C5
:102A4000704700001404014001460020034A126848
:102A50000A400AB1012000E0002070471404014040
:102A6000002123498279002A3AD00A461268036875
:102A70009A430B461A600A1D126803689A430B1D9D
:102A80001A60027911440A6803681A430A60184AF6
:102A90000832126803689A43154B08331A601A1DEE
:102AA000126803689A43124B0C331A604279102A59
:102AB0000ED11A1F126803681A430D4B08331A60AF
:102AC0001A1D126803681A43094B0C331A600DE093
:102AD0000749427911440A6803681A430A6005E00D
:102AE000027911440A6803689A430A60704700003B
:102AF0000004014000B59BB00F208DF8000009488C
:102B000000788DF8010008480290084801906A4654
:102B1000002103A807F0AEF89DF80D0001490870E8
:102B20001BB000BDE4000020FCF4000845EE0008E6
:102B300004200B49096801F0010109B101200EE0F0
:102B40000749096801F4807109B1022007E00449CE
:102B5000096801F4F05109B1032000E00420704736
:102B6000183C024010B503460C4672B6002104E042
:102B700004482044405C5854491C9142F8D362B642
:102B8000002010BD000008082DE9F04105460E4662
:102B9000174672B6FFF774F8002406E0295D054A6F
:102BA00032441019FFF73EF8641CBC42F6D362B6FB
:102BB000BDE8F0810000080808B502460420009036
:102BC000FFF7B6FF009003E0FFF7B2FF0090521E40
:102BD0009DF80000012801D1002AF5D10AB905208D
:102BE00000909DF8000008BDF0B502460B4600219C
:102BF00000240025002000BF35E0012606FA01F47C
:102C00001E6806EA0405A5422CD110684F00032671
:102C1000BE40B0431E794F00BE40304310601E7965
:102C2000012E02D01E79022E12D190684F00032689
:102C3000BE40B0435E794F00BE4030439060908804
:102C400001268E40B0439E798E40B6B230439080CC
:102C5000D0684F000326BE40B043DE794F00BE402F
:102C60003043D060491C1029C7D3F0BDF0B5002314
:102C700000244D07ED0E02FA05F3CE1000F12005F9
:102C800055F826504E07F70E0F26BE40B543CF101D
:102C900000F1200646F82750CE1000F1200555F827
:102CA000265045EA0304CE1000F1200545F82640E1
:102CB000F0BD02460020138A0B400BB1012000E05A
:102CC0000020704741837047018370472DE9F84F1A
:102CD00081468A461746002406E00F48005DB84248
:102CE00000D103E0601C84B25A2CF6DB00BF5A2CE2
:102CF00000DB5924C4EB4410084945182E7895F898
:102D00000180ED1C43463246514648460095FFF788
:102D1000F1FC3046BDE8F88F7EE0000898D5000849
:102D20002DE9F84F81468A461546104F002407E0EA
:102D3000B7F80080A84500D104E0FF1C601CC4B2B5
:102D4000632CF5DB00BF632C02D10020BDE8F88FB7
:102D5000C4EBC400064901EB80060E231A46514617
:102D600048460096FFF7C6FC0E20EFE7ADEB0008E3
:102D7000D9E000082DE9F05F05468B46164634463B
:102D80004FF0000A1EE020787F2808DC14F8017B51
:102D90003A4659462846FFF799FF814608E0B4F8BD
:102DA0000080A41C424659462846FFF7B9FF8146D9
:102DB00005EB0900C5B20AEB090000F0FF0A802DFF
:102DC00000DB02E020780028DDD100BF5046BDE8DE
:102DD000F09F2DE9F04106468846144600270DE095
:102DE000207800B90BE014F8012B41463046FFF77C
:102DF0006DFF05467019C6B27819C7B2F0E700BF7B
:102E00003846BDE8F0812DE9F05F05468B46164651
:102E100034464FF0000A1EE020787F2808DC14F8C2
:102E2000017B3A4659462846FFF750FF814608E0A5
:102E3000B4F80080A41C424659462846FFF770FFAC
:102E4000814605EB0900C5B20AEB090000F0FF0A54
:102E5000802D00DB02E020780028DDD100BF504645
:102E6000BDE8F09F2DE9F05F05468B4616463446D7
:102E70004FF0000A1EE020787F2808DC14F8017B60
:102E80003A4659462846FFF721FF814608E0B4F844
:102E90000080A41C424659462846FFF741FF814660
:102EA00005EB0900C5B20AEB090000F0FF0A802D0E
:102EB00000DB02E020780028DDD100BF5046BDE8ED
:102EC000F09F2DE9F04706468A4617463C464FF0EC
:102ED000000914E020787F2810DC14F8018B4246AA
:102EE00051463046FFF7F2FE05467019C6B209EBAF
:102EF000050000F0FF09802E01DB03E002E02078EE
:102F00000028E7D100BF4846BDE8F0872DE9F04F23
:102F100089B000BF00BF4FF0000A00271AE007EB9E
:102F20004700801C494931F81040B4F5805F00DB50
:102F300024110AEB04001FFA80FA17B9A046A14633
:102F400006E0A04501DAA04602E0A14500DDA14669
:102F5000781CC7B20A2FE2DBAAEB0801A1EB09003B
:102F6000C11700EB5171C1F3CF0B5846FDF7D0FBF1
:102F7000CDE9040136480068FDF73CFC0022354BE2
:102F8000CDE90001FDF747FBCDE90201DDE90423AE
:102F9000FDF7CFFA00224FF08043CDE90601FDF79F
:102FA000C8FA05460E462C48007858B12A480078E1
:102FB000401E2949087028463146FDF72EFC274956
:102FC00008601FE0264A274B28463146FDF7B1FA34
:102FD000CDE9060121480068FDF70CFC224A234B8D
:102FE000CDE90201FDF7A5FACDE90401DDE90623EB
:102FF000FDF7F8F905460E4628463146FDF70DFC6B
:103000001649086000221A4B28463146FDF791FA0E
:103010000022184BCDE90201FDF78BFA00224FF098
:103020008043CDE90401FDF7F6FACDE90601FDF78D
:10303000C8FB11490870FEF72BF9052008F0D0FDF8
:103040000D48007809B0BDE8F08F0000C4220020D0
:10305000640000200000B040380000203400002050
:103060009A9999999999B93FCDCCCCCCCCCCEC3FDD
:1030700000002440000008403900002030B503461D
:10308000002000240FE000EB400503EB05152D6A3E
:103090002D78012D05D1651CECB2551CAC4200D138
:1030A00003E0451CE8B28842EDDB00BF30BD10B53F
:1030B00002460B46002100200BE001EB410402EB2D
:1030C0000414246A2478012C01D1441CE0B24C1C65
:1030D000E1B29942F1DB10BD10B500202D49087016
:1030E000012048858885002081F82E001E2129486E
:1030F0000C30FDF7CCF8632026494860886000203A
:103100004870FEF751FDFEF739FDFEF721FD00F096
:10311000BBFE04F0E9FB04F04DFD01F07DFD142041
:103120001D4908700EE01C48007838B11A48007834
:10313000401E194908700020184908703220DFF835
:1031400060C000DF642217A117A001F095FD18B13F
:10315000114800780028E6D10F48007828B907F018
:1031600015FBFEF7DDF8002010BD01F0B1F800F00E
:1031700061F80849486001F10C0000F017F800F010
:10318000B9FF01F0E1FC07F001FBFEF7C9F80120EF
:10319000EAE70000781F0020270000202800002018
:1031A000D1C300084F4B0000415400002DE9F0410D
:1031B0000746002400250026642210A110A001F07B
:1031C0005BFD11480446B4B100BF00BF0FE0605D75
:1031D00030280ADB605D392807DC1E2E04DA605DCA
:1031E000B855701CC6B200E004E0681CC5B2605D52
:1031F0000028ECD100BFBDE8F08100004F4B00007B
:1032000041542B43494D49004421002010B501F0A1
:1032100073F84FF480710648FFF74BFD012803D186
:10322000FEF796FC012010BDFEF792FC0020FAE7A5
:103230000004024070B500240025C82233A134A048
:1032400001F01AFD34A13548FDF72CF80446002C96
:103250005AD02046FDF738F8092855D9207B302868
:1032600052DB207B39284FDC607B2C2818D1207B57
:103270003038C5B2E07B30280DDBE07B39280ADC32
:10328000E07B3038A17B303901EB810100EB41005C
:103290002349886022E0A07B3038214988601DE006
:1032A000607B3038217B303901EB810100EB41003C
:1032B000C5B2207C30280DDB207C39280ADC207C3C
:1032C0003038E17B303901EB810100EB41001449DA
:1032D000886003E0E07B303811498860002D07DB0F
:1032E0001F2D05DC0F48057000200F49087004E011
:1032F0000D480078401C0C4908700B4800780A28DB
:1033000002DB0A2008490870284670BD4F4B0000B8
:1033100041542B435351000043535100442100209A
:10332000781F00202A0000202B00002070B50246E4
:10333000114600200BE00E787F2E03DC11F8013BD4
:10334000072502E00C88891C0E254619F0B20E787C
:10335000002EF0D170BD00002DE9F04786B04FF08F
:10336000000A00BF1120FDF705FC052008F038FC1D
:1033700000202749087006E00AF1010A642008F0DD
:103380002FFC00F057FC2248007810B9BAF1640F06
:10339000F2D30026002517E005EB45001D4931F862
:1033A0001040B4F5805F00DB2411301986B215B9E6
:1033B0002746A14606E0A74201DA274602E0A145DA
:1033C00000DDA146681C85B20A2DE5DBF11BA1EBEF
:1033D0000900C11700EB5171C1F3CF084046FDF75A
:1033E00097F902460B46CDE900010B480B49FDF762
:1033F00012F900220A4BCDE90201FDF79AF8CDE956
:103400000401FDF70AFA0749086006B0BDE8F08735
:1034100030000020C42200202FDD24068195F33FD8
:103420000000B0406400002010B50848406808491A
:10343000086008460068074908600449086880F386
:10344000088800BF03480068804710BD006001087D
:10345000500000204C00002000BFFEE770B503467E
:10346000002062E011F81060302E08DB11F81060C7
:10347000392E04DC11F810603607350E1AE011F809
:103480001060412E09DB11F81060462E05DC11F8A2
:103490001060F61F3607350E0CE011F81060612E33
:1034A00008DB11F81060662E04DC11F81060F61FBE
:1034B0003607350E012606EB40068E5D302E0CDBFE
:1034C000012606EB40068E5D392E06DC012606EB52
:1034D00040068E5D303EF4B224E0012606EB400645
:1034E0008E5D412E0CDB012606EB40068E5D462EDE
:1034F00006DC012606EB40068E5D373EF4B211E095
:10350000012606EB40068E5D612E0BDB012606EBE5
:1035100040068E5D662E05DC012606EB40068E5DBC
:10352000573EF4B22E191E54401C90429ADB0026DE
:103530009E5470BDF8B50546082600241BE06006C1
:10354000040E4FF480712648FFF7BCFB00F07AF8B8
:1035500000F006F94FF480712148FFF7B5FB00F049
:10356000FFF880211E48FFF7A4FB00909DF80000A3
:1035700008B144F001043000A6F10101CEB2DED161
:10358000B5B14FF480711648FFF79CFB00F0E8F8E6
:1035900000F06CF880211248FFF794FB00F0E0F88F
:1035A0004FF480710E48FFF78FFB00F0D9F815E05B
:1035B0004FF480710A48FFF785FB00F0D1F800F066
:1035C00055F880210648FFF77FFB00F0C9F84FF45B
:1035D00080710348FFF778FB00F0C2F82046F8BD81
:1035E0000008024070B5044608251DE04FF48071C4
:1035F0001348FFF767FB00F0B3F804F0800020B138
:1036000080210F48FFF760FB03E080210C48FFF7A3
:1036100059FB6006040E00F0A3F84FF480710848CF
:10362000FFF752FB00F09CF82800A5F10101CDB294
:10363000DCD100F067F8064600F092F8304670BD25
:10364000000802401CB58020009001208DF8050084
:1036500000208DF804008DF806008DF807006946FB
:103660000148FFF7C1FA1CBD000802401CB58020CC
:10367000009001208DF805008DF8040000208DF8E1
:1036800006008DF8070069460148FFF7ADFA1CBD3A
:103690000008024010B5FFF7E9FF80210948FFF755
:1036A00013FB00F05DF84FF480710648FFF70CFB48
:1036B00000F056F880210348FFF704FB00F050F8B3
:1036C00010BD00000008024010B54FF480710C4896
:1036D000FFF7F8FA00F044F880210948FFF7F2FA02
:1036E00000F03EF84FF480710548FFF7EDFA00F066
:1036F00037F880210248FFF7E7FA00F031F810BDF3
:103700000008024070B5FF240125611C1348FFF733
:10371000D9FA00F025F8FFF795FF611C0F48FFF775
:10372000D3FA00F01DF806E0601EC4B20CB9002503
:1037300007E000F015F880210848FFF7BAFA0128E1
:10374000F2D000BF4FF480710448FFF7BBFA00F0DD
:1037500007F8FFF78BFF284670BD00000008024005
:1037600008B50C20009004E0BDF80000401E80B2B7
:103770000090BDF800000028F6D108BDF8B5054658
:103780000826002418E06006040E80212448FFF774
:1037900099FA00F019F900F031FA80212048FFF77A
:1037A00093FA00F02BFA03F035FAC0B200909DF8BE
:1037B000000008B144F001043000A6F10101CEB2CE
:1037C000E1D1ADB180211648FFF77CFA00F016FA7E
:1037D00000F022F94FF480711148FFF773FA00F0FE
:1037E0000DFA80210E48FFF76FFA00F007FA14E097
:1037F00080210B48FFF766FA00F000FA00F00CF9A0
:103800004FF480710648FFF75FFA00F0F7F9802166
:103810000348FFF759FA00F0F1F92046F8BD00001F
:1038200000080240F8B505460826002418E06006A6
:10383000040E80212848FFF745FA00F0D9F800F07F
:10384000EBF980212448FFF73FFA00F0E5F903F097
:10385000EFF9C0B200909DF8000008B144F00104F7
:103860003000A6F10101CEB2E1D1CDB180211A48DC
:10387000FFF728FA00F0D0F900F0E4F84FF4807177
:103880001548FFF71FFA00F0C7F980211248FFF72B
:103890001BFA00F0C1F980210F48FFF713FA18E076
:1038A00080210D48FFF70EFA00F0B6F900F0CAF8D3
:1038B0004FF480710848FFF707FA00F0ADF9802156
:1038C0000548FFF701FA00F0A7F980210248FFF749
:1038D000F9F92046F8BD00000008024070B5044622
:1038E00008251DE080211448FFF7ECF900F086F967
:1038F00004F0800028B14FF480710F48FFF7E4F91D
:1039000004E04FF480710C48FFF7DCF96006040E08
:1039100000F074F980210848FFF7D6F900F06EF93D
:103920002800A5F10101CDB2DCD100F013F9064663
:1039300000F064F9304670BD0008024070B50446DE
:10394000082500F07FF81DE080211448FFF7BAF940
:1039500000F062F904F0800028B14FF480710F4844
:10396000FFF7B2F904E04FF480710C48FFF7AAF9B1
:103970006006040E00F050F980210848FFF7A4F912
:1039800000F04AF92800A5F10101CDB2DCD100F028
:103990000BF9064600F040F9304670BD00080240C1
:1039A0001CB500208DF806008DF804008DF8070086
:1039B0008DF805004FF4C070009069460148FFF78C
:1039C00013F91CBD000802401CB500208DF806004C
:1039D0008DF804008DF8070001208DF80500000225
:1039E000009069460148FFF7FFF81CBD000802403F
:1039F0001CB500208DF806008DF804008DF8070036
:103A000001208DF805000002009069460148FFF78B
:103A1000EBF81CBD000802401CB500208DF8060024
:103A200001208DF8040000208DF8070001208DF89A
:103A300005000002009069460148FFF7D5F81CBD5B
:103A4000000802401CB500208DF8060001208DF80A
:103A5000040000208DF8070001208DF80500000209
:103A6000009069460148FFF7BFF81CBD00080240FE
:103A700010B5FFF7D1FF4FF480710948FFF724F923
:103A800000F0BCF880210648FFF71EF900F0B6F8F8
:103A90004FF480710248FFF715F900F0AFF810BD40
:103AA0000008024010B5FFF7CDFF4FF480710948C0
:103AB000FFF70AF900F0B0F880210648FFF704F993
:103AC00000F0AAF84FF480710248FFF7FBF800F00D
:103AD000A3F810BD0008024010B580210C48FFF784
:103AE000F1F800F08BF84FF480710948FFF7EAF81D
:103AF00000F084F880210648FFF7E6F800F07EF831
:103B00004FF480710248FFF7DFF800F077F810BD3E
:103B10000008024010B5FFF795FF80210C48FFF721
:103B2000D1F800F079F84FF480710948FFF7CAF82E
:103B300000F072F880210648FFF7C6F800F06CF834
:103B40004FF480710248FFF7BFF800F065F810BD30
:103B50000008024070B51424012580211148FFF7A8
:103B6000B1F800F04BF8FFF72FFF80210D48FFF769
:103B7000ABF800F043F806E0601EC4B20CB90025B3
:103B800005E000F03BF803F045F80128F4D000BF51
:103B900080210448FFF796F800F030F8FFF73CFF6B
:103BA000284670BD0008024070B5322401258021EE
:103BB0001148FFF787F800F02FF8FFF719FF802171
:103BC0000D48FFF781F800F027F806E0601EC4B248
:103BD0000CB9002505E000F01FF803F029F80128D2
:103BE000F4D000BF80210448FFF76CF800F014F80F
:103BF000FFF728FF284670BD0008024008B50520E1
:103C0000009004E0BDF80000401E80B20090BDF8B6
:103C100000000028F6D108BD08B50520009004E09A
:103C2000BDF80000401E80B20090BDF800000028E2
:103C3000F6D108BD70472DE9F0410024A04600F000
:103C400051F8FFF727FDA020FFF7CCFC8046B027F6
:103C50003846FFF7C7FC804601252846FFF7C2FC1F
:103C600080462C4400252846FFF7BCFC80462C44A7
:103C700083252846FFF7B6FC80466019C4B2F325B9
:103C80002846FFF7AFFC80466019C4B29825284645
:103C9000FFF7A8FC80466019C4B210252846FFF73C
:103CA000A1FC80466019C4B2002608E01025284611
:103CB000FFF798FC80466019C4B2701CC6B20E2E85
:103CC000F4DBD0252846FFF78DFC80466019C4B28E
:103CD00025462846FFF786FC8046FFF7F5FCBDE841
:103CE000F081000000B585B000208DF812000120A1
:103CF0008DF8100000208DF8130001208DF81100C0
:103D00004FF4C070039003A91C48FEF76DFF4FF4F9
:103D100080711A48FEF7D8FF80211848FEF7D4FFBB
:103D200000208DF810008DF813004020039003A9A7
:103D30001248FEF759FF0621022003F047FA4020FF
:103D4000019000208DF808000C208DF8090001205A
:103D50008DF80A0017208DF8000000208DF8010072
:103D60008DF8020001208DF8030001A8FEF778FE0F
:103D7000684601F0F5F805B000BD000000080240FB
:103D800010B5FDF72DFBFDF7F9FEFDF711FBFDF773
:103D9000DFFAFDF7C5FAFDF7F3FAFCF7BDFF01F016
:103DA00087F9FDF777F9FFF7FBFD00F001F810BD8B
:103DB0001CB500208DF804008DF8070001208DF857
:103DC00006000420009069460148FEF70DFF1CBD67
:103DD0000008024010B54CF210400649088000F07F
:103DE0000BF801F071FA0348008801B2012001F0DC
:103DF000A1FA10BDF20000201CB500208DF80600CD
:103E000001208DF8040000208DF8070001208DF8B6
:103E100005004FF4C070009069460648FEF7E4FEC6
:103E200080210448FEF750FF4FF480710148FEF7EF
:103E30004BFF1CBD0008024010B500F005F806F06D
:103E4000C9FA06F015FC10BD1CB500208DF806005F
:103E500001208DF8040000208DF8070001208DF866
:103E600005004FF4C070009069460648FEF7BCFE9E
:103E700080210448FEF728FF4FF480710148FEF7C7
:103E800023FF1CBD0008024000B587B00121480493
:103E900001F0C6FC072202212948FEF7E7FE0722AF
:103EA00003212748FEF7E2FE0420059002208DF84A
:103EB00018008DF8190000208DF81A0001208DF8E7
:103EC0001B0005A91E48FEF78FFE08200590022062
:103ED0008DF8180005A91A48FEF786FE4FF4E13068
:103EE00001900020ADF80800ADF80A00ADF80C0014
:103EF000ADF810000C20ADF80E0001A9114806F035
:103F00001FFD4FF4A06001F067F826208DF8000037
:103F100000208DF801008DF8020001208DF80300CB
:103F2000684601F01DF8012240F22551054806F0CF
:103F3000E1FC0121034806F09AFC07B000BD000037
:103F400000000240004400401CB503208DF804002E
:103F500000208DF805008DF8070049F640400090DC
:103F600069460F48FEF740FE40F2964000906946D1
:103F70000C48FEF739FE43F60B60009069460A488C
:103F8000FEF732FE0420009069460848FEF72CFE3A
:103F90000320009069460648FEF726FE1CBD00007F
:103FA000000002400004024000080240000C0240F1
:103FB0000014024070B50022034600BF0A2493FBA0
:103FC000F4F40A2594FBF5F605FB16443034154647
:103FD000521C4C550A2493FBF4F504FB1534303481
:103FE0001546521C4C552E261546521C4E55002681
:103FF0001546521C4E5570BD10B54FF480610248F5
:10400000FCF745F910BD0000781B00202DE9F047B2
:104010004FF000084FF08009082400274FF0000AF5
:10402000E11704EB5171C910A4EBC10131B920466D
:10403000E11704EB5171C1F3C70506E02046E11713
:1040400004EB5171C910491CCDB2554613E0294605
:10405000384601F0EFF83E4609E0414608F1010814
:10406000074A505C012101F0FDF8701CC6B24E45B4
:10407000F3DB681CC5B2A542E9DBBDE8F0870000B0
:10408000781B002010B502F0AFFD4FF4FA70DFF896
:1040900050C000DF1420134908700EE0114800786A
:1040A00038B110480078401E0E49087000200E49B3
:1040B0000870C820DFF828C000DF64220BA10CA024
:1040C00000F0DAFD18B1074800780028E6D105486D
:1040D000007808B9002010BD00F0FAF80120FAE7D6
:1040E000D1C3000827000020280000204F4B00000B
:1040F0004154000010B50024FFF79CF82F49486098
:1041000014202F49087016E032222EA130A000F0B2
:10411000B3FD28B1322231A12DA000F0ADFD08B9C8
:1041200001240CE026480078401E25490870C8206C
:10413000DFF8B4C000DF224800780028E4D100BFD7
:10414000012C32D1C8201E49087016E01C480078A6
:10415000401E1B490870322224A127A000F08CFDCC
:1041600038B9022416480078C0F1C80013494885C0
:1041700007E03220DFF870C000DF11480078002827
:10418000E4D100BF022C03D101200C49487010BDBE
:1041900000200A494870032081F82E001948407811
:1041A000401C184948700020F1E70020034948707E
:1041B000022081F82E000020E9E70000781F00208F
:1041C0002700002043455245473A20302C3100005B
:1041D00041542B43455245473F000000434552455B
:1041E000473A20302C350000D1C3000843474143F3
:1041F000543A20312C31000041542B434741435461
:104200003F000000A81F002010B500202A490870B8
:10421000488581F82E001E2127480C30FCF737F81E
:10422000632025494860886000204870FDF7BCFC89
:10423000FDF7A4FCFDF78CFCFFF726FE03F054FB12
:1042400003F0B8FC00F0E8FC14201C4908700EE0F4
:104250001A48007838B119480078401E174908708C
:104260000020174908703220DFF858C000DF6422B0
:1042700015A116A000F000FD18B110480078002824
:10428000E6D10E48007828B906F080FAFDF748F824
:10429000002010BD00F01CF8FEF7CCFF0649486076
:1042A00001F10C00FEF782FF00F04EFC06F06EFA02
:1042B000FDF736F80120ECE7781F002027000020EA
:1042C00028000020D1C300084F4B000041540000DB
:1042D00010B50024642204A104A000F0CDFC00B1BC
:1042E0000124204610BD00004F4B000041542B53C9
:1042F0004D3D4C4F434B00001CB54FF48070009077
:1043000000208DF8040002208DF8050001208DF8B2
:10431000070069460148FEF767FC1CBD0004024027
:1043200010B5FEF773FF012804D100F023FC04460A
:10433000204610BD1420124908700EE01048007885
:1043400038B10F480078401E0D49087000200D4913
:1043500008703220DFF830C000DF32220BA10CA041
:1043600000F08AFC18B1064800780028E6D104481D
:10437000007808B90020DCE7FFF7AAFF0120D8E7A2
:104380002700002028000020D1C300084F4B000068
:10439000415400001CB50820009001208DF8040055
:1043A00002208DF8050000208DF8060001208DF810
:1043B000070069460348FEF717FC08210148FEF78D
:1043C00081FC1CBD000402402DE9F0410027B846E5
:1043D00001260025FDF7E8FBFDF7D0FBFDF7B8FB54
:1043E000FFF752FD03F080FAFFF79AFF04460CB97D
:1043F000FFF748FEFFF77EFE0446012C01D101269F
:1044000000E000262AE0364800793649087000F0BE
:104410006DF90446012C0BD1002607F063FB3248EE
:10442000007820B130480089401C2F49088117E0EE
:10443000FFF776FF04460CB9FFF724FEFFF75AFE9C
:1044400004462948007820B127484089401C264965
:104450004881681CC5B2052D00DB0026002ED2D194
:1044600000BF2148007898B300201F49C870084653
:1044700080781B4988850846408D1B494978C1EBE7
:10448000011101EB410100EB8100154948851648F7
:10449000808890B10846418D134882790C3020F80D
:1044A00012100F48818D10488279D43020F81210F4
:1044B000D4388079401C0C498871002240F67F4135
:1044C00042F20F7005F0FEFE002007498870487028
:1044D00000F03AFB06F05AF9FCF722FFBDE8F08144
:1044E000781F00206E000020A81F00202DE9F04159
:1044F000064601270025FDF757FBFDF73FFBFDF7BB
:1045000027FBFFF7C1FC03F0EFF9FFF709FF0446B3
:104510000CB9FFF7B7FDFFF7EDFD0446012C01D103
:10452000012700E000271AE01248007912490870BC
:10453000304600F023F80446012C02D107F0D2FAED
:1045400008E0FFF7EDFE04460CB9FFF79BFDFFF70F
:10455000D1FD0446681CC5B2052D00DB0027002FE5
:10456000E2D100F0F1FA06F011F9FCF7D9FEBDE84E
:10457000F0810000781F00206E0000202DE9F04738
:10458000ADF50C7D8046282182A8FBF780FE4FF018
:104590000009CA46002600273E48C0783D49897870
:1045A000CDE900103B48437802783BA182A806F091
:1045B0006FFD3C4802883CA17FA806F069FD7FAAF8
:1045C00082A9012007F0B0FA642238A138A000F0D7
:1045D00053FB4046FDF792F83948C078821D02A986
:1045E0003748FCF72BFD3648C07800F106097FA854
:1045F00082AB02AA49460090012008F01DFC054646
:10460000B5B9002411E07FA882AB02AA4946009008
:10461000012008F011FC05464FF47A70DFF8A4C0C1
:1046200000DF05B903E0601CC4B20A2CEBDB00BF5D
:10463000012D2CD1002609E023A000F005FB074640
:10464000701C86B21420DFF87CC000DF1FB940F276
:10465000DC508642F0DB27B14FF47A70DFF864C09B
:1046600000DF1B481BA1026882A806F011FD82A989
:104670001D48FBF717FE8246BAF1000F02D0012059
:1046800000F070F901200DF50C7DBDE8F0870020E9
:10469000F9E70000A000002025642E25642E256483
:1046A0002E256400A4000020256400004F4B00006C
:1046B00041542B4950524346473D312C322C310056
:1046C00040330020D1C300082B495052443A000027
:1046D0009C0000202C31312C4141443033303035A6
:1046E0002530385800000000442100202DE9F04317
:1046F000ADF50D7D282183A8FBF7C9FD4FF000091A
:1047000000260027B0467248007848B10120704961
:10471000C870012240F67F4142F20F7005F0D2FDD1
:104720006C48C0786B498978CDE9001069484378B6
:10473000027869A183A806F0ABFC6A4802886AA1E6
:1047400080A806F0A5FC80AA83A9012007F0ECF957
:10475000642266A166A000F08FFAFDF7E9F86848C8
:10476000C078821D03A96648FCF768FC6448C078DD
:1047700000F1060980A883AB03AA494600900120F6
:1047800008F05AFB0446BCB9002512E080A883ABB0
:1047900003AA49460090012008F04EFB04464FF45E
:1047A0007A70DFF860C100DF012C00D103E0681CE3
:1047B000C5B20A2DEADB00BF012C7DD10020524991
:1047C00008705249087021025148FBF760FD00272C
:1047D00009E050A000F038FA8046781C87B2142017
:1047E000DFF820C100DFB8F1000F03D140F2DC5048
:1047F0008742EEDBB8F1000F04D04FF47A70DFF897
:1048000004C100DF454846A1026883A806F040FCC9
:1048100083A93F48FBF746FD0646002E51D01622DD
:10482000311D03A8FEF71AFE9DF8150001283AD1A4
:104830009DF816003F4908609DF817003E49086042
:104840009DF818003D4908709DF819003C49087012
:104850009DF81A003B4908709DF81B003A49087002
:104860009DF81C00394908709DF81D0038490870F2
:104870009DF81E00374908709DF81F0036490870E2
:104880000846007818B900203449087005E032481D
:104890000078012801D1314908702948007810B901
:1048A00001202749087001202D490870010218488D
:1048B000FBF7EDFC012000E008E00DF50D7DBDE803
:1048C000F0834FF480711248FBF7E1FC0020F2E71F
:1048D000A81F0020A000002025642E25642E25643A
:1048E0002E256400A4000020256400004F4B00002A
:1048F00041542B4950524346473D312C322C310014
:1049000040330020D1C300082C0000202E000020DE
:10491000442100202B495052443A00009C000020C2
:104920002C32322C4141443032303131253038582C
:1049300000000000A8000020B0000020C1000020FE
:10494000C2000020C4000020C3000020C5000020D9
:10495000C6000020C8000020C900002095000020EB
:10496000CA0000202DE9F047ADF50C7D81462821D5
:1049700082A8FBF78CFC4FF0000A00260027B04607
:10498000642255A155A000F077F9FCF7D1FF5748F4
:10499000C078821D02A95548FCF750FB5348C078E7
:1049A00000F1060A7FA882AB02AA51460090484651
:1049B00008F042FA0546B5B9002411E07FA882ABA1
:1049C00002AA51460090484608F036FA05464FF4D0
:1049D0007A70DFF81CC100DF05B903E0601CC4B2C7
:1049E0000A2CEBDB00BF012D73D1002709E041A0A9
:1049F00000F02AF98046781C87B21420DFF8F0C056
:104A000000DFB8F1000F03D140F2DC508742EEDB4B
:104A1000B8F1000F04D04FF47A70DFF8D4C000DF93
:104A2000364837A1026882A806F032FB82A93948CD
:104A3000FBF738FC0646002E4BD01622311D02A88B
:104A4000FEF70CFD9DF8110001283AD19DF81200E7
:104A5000314908609DF81300304908609DF8140042
:104A60002F4908709DF815002E4908709DF8160012
:104A70002D4908709DF817002C4908709DF8180002
:104A80002B4908709DF819002A4908709DF81A00F2
:104A9000294908709DF81B002849087008460078CD
:104AA00018B900202649087005E02448007801283C
:104AB00001D1234908701B48007810B90120194919
:104AC000087001201F4908700DF50C7DBDE8F087C6
:104AD000FFE70020F8E700004F4B000041542B494E
:104AE00050524346473D312C322C31004033002098
:104AF000D1C300082B495052443A00009C000020CA
:104B00002C32322C4141443032303131253038584A
:104B10000000000044210020A8000020B000002078
:104B2000C1000020C2000020C4000020C3000020FB
:104B3000C5000020C6000020C8000020C9000020D9
:104B400095000020CA00002010B50024642204A1B2
:104B500004A000F091F800B10124204610BD00002F
:104B60004F4B000041542B534D3D554E4C4F434B42
:104B70000000000010B5FEF749FB01283BD103F00F
:104B80003FF840211E48FEF79FF8C82007F028F89C
:104B900040211B48FEF796F8FDF706F89620DFF84F
:104BA00064C000DFFEF732FB38BB142016490870E2
:104BB0000EE01548007838B113480078401E1249BD
:104BC0000870002011490870C820DFF838C000DFE5
:104BD00064220FA10FA000F04FF818B10A48007826
:104BE0000028E6D10848007808B9002010BDFFF77A
:104BF0006FFB0120FAE70020F8E700BFF6E70000AE
:104C000000040240D1C30008270000202800002033
:104C10004F4B00004154000010B5FEF7F7FA012891
:104C20000ED102F0EDFF40210648FEF74DF864205A
:104C300006F0D6FF40210348FEF744F8FCF7B4FF26
:104C400010BD00000004024070B50446002507486E
:104C5000007848B100200649064A12788854214657
:104C60000348FBF71FFB0546284670BD2C000020BB
:104C7000442100202E000020F0B5FDB006460D4670
:104C800014464FF4FA716846FBF701FB0027002039
:104C900018490870184908704FF480711748FBF7DD
:104CA000F6FA324616A1684606F0F2F96946164849
:104CB00008F046FCDDB1D4B112E0FEF7BBFF1420D2
:104CC000DFF848C000DF0B48007838B12846FFF70E
:104CD000BBFF00B108E00020064908700C480078CE
:104CE000601E80B20400E8D100BF04B90127384635
:104CF0007DB0F0BD2C0000202E00002044210020BB
:104D000025730D0A0000000000440040D1C30008D4
:104D10005E00002000BFFEE72DE9F0418EB00125C6
:104D200001264FF0000800206849888001200870A3
:104D3000FFF762F966A200212820FEF793F867A228
:104D400014210020FEF78EF8FFF760F9FEF7C4F992
:104D50008046FFF739FBB8F1000F07D1FFF74CF998
:104D600061A214210020FEF77DF864E0FFF744F90A
:104D7000342101A8FBF78BFA5E4A5FA101A806F077
:104D800087F901A8FBF7A0FA28B101AA08210020A1
:104D9000FEF768F804E059A200210846FEF762F821
:104DA00054480C384068632805D156A210210020D1
:104DB000FEF758F80FE0342101A8FBF768FA4D48D8
:104DC0000C3853A1426801A806F062F901AA142127
:104DD0000020FEF747F847480C384078012825D1D5
:104DE0004EA220210020FEF73DF8342101A8FBF758
:104DF0004EFA40480C38428D4BA101A806F048F904
:104E000001AA2C210020FEF72DF8342101A8FBF780
:104E10003EFA38480C38828D46A101A806F038F9D0
:104E200001AA2C213720FEF71DF804E043A220211F
:104E30000020FEF717F842E0012E02D10026FFF70E
:104E4000E5F8FEF7F7FE00224FF6FF710C20DFF8C1
:104E5000FCC000DFDFF8F8C000DF3E49086008460C
:104E6000006804282BD13C480078FF2827D0FCF7A5
:104E7000C5F839480478FF2037490870082C1BD042
:104E800006DC012C15D0022C14D0042C15D112E014
:104E9000102C02D0202C10D105E000250027002086
:104EA0000A4908700AE00025002700200749087019
:104EB00004E003E002E001E000E000BF00BF002DDD
:104EC000BAD138460EB0BDE8F0810000A81F00201E
:104ED0004E42737461747573000000005761697409
:104EE0002E2E2E2E000000004E422D4552524F52C3
:104EF00000000000841F0020257300004E4F436116
:104F0000726400004E4F5369676E616C00000000D0
:104F1000727373693A202564000000006C696E6B3F
:104F20004E65743A204F4B006C696E6B3A25647382
:104F300000000000636F6D3A256473006C696E6B4E
:104F40004E65743A204552524F52000091C40008F9
:104F5000D9C30008EC0000205D000020704700006D
:104F600070B5002100230F22C4781CB3174C2468AD
:104F700004F4E064C4F5E064C4F30721C1F104045F
:104F8000E3B20A4144789C40E1B284781440214362
:104F90000C07210E0E4C05786155047804F01F05AE
:104FA0000124AC4005786D11AD0005F1E025C5F890
:104FB000004109E0047804F01F050124AC40054DD0
:104FC0000678761145F8264070BD00000CED00E033
:104FD00000E400E080E100E002490143024A116080
:104FE000704700000000FA050CED00E0024A0A409C
:104FF0000243024B1A60704780FFFF1F08ED00E07C
:1050000070B5002419E004F1B001C8B2002100F02D
:1050100029F90021084600F025F90021102000F0B0
:1050200021F9002505E00121002000F01BF9681C92
:10503000C5B2802DF7DB601CC4B2082CE3DB70BD69
:105040000EB5194802F03EF823208DF80000032029
:105050008DF8010000208DF802008DF803006846ED
:10506000FFF77EFF0021104802F020F800214FF4E6
:10507000805000F0F5FB00208DF808008DF80A0044
:105080004FF44470019002208DF80B008DF8090058
:1050900001A90648FDF7A8FDA020019001A9034839
:1050A000FDF7A2FD0EBD00000030014000000240EF
:1050B0001CB500208DF8040002208DF805008DF845
:1050C000070000208DF806004FF46C7000906946D0
:1050D0000148FDF789FD1CBD000002401CB5012000
:1050E0008DF8040000208DF806004FF44470009005
:1050F00001208DF8070002208DF8050069464B4815
:10510000FDF772FD01F048FF4FF480714748FDF74D
:10511000DBFDC820DFF818C100DF4FF48071434881
:10512000FDF7D0FDC820DFF808C100DF4FF4807123
:105130003E48FDF7C9FD0021AE2000F093F80021A4
:10514000084600F08FF80021102000F08BF80021B5
:10515000402000F087F80021812000F083F8002132
:10516000CF2000F07FF80021A12000F07BF8002183
:10517000C82000F077F80021A62000F073F8002185
:10518000A82000F06FF800213F2000F06BF800210C
:10519000D32000F067F80021084600F063F80021F2
:1051A000D52000F05FF80021802000F05BF800219E
:1051B000D92000F057F80021F12000F053F8002129
:1051C000DA2000F04FF80021122000F04BF8002107
:1051D000DB2000F047F80021402000F043F80021D8
:1051E000202000F03FF80021022000F03BF80021D1
:1051F0008D2000F037F80021142000F033F8002152
:10520000A42000F02FF80021A62000F02BF80021A8
:10521000AF2000F027F80021AF2000F023F8FFF7BF
:10522000EFFE0021084600F005F81CBD000002401A
:10523000D1C3000870B504460D4605F1B001C8B2EF
:10524000002100F00FF8102141EA1410002100F0B5
:1052500009F804F00F0141F00100002100F002F80C
:1052600070BD000070B505460C46012C04D1490202
:105270000C48FDF729FD04E04FF400710948FDF7E3
:1052800021FD10210748FDF71DFD284601F0F2FE23
:1052900010210448FDF718FD4FF400710148FDF797
:1052A00013FD70BD0000024010B50024002000F086
:1052B0005FF80446210B01208840C4F30B0100FB7A
:1052C00001F4204610BD000000B585B000208DF827
:1052D000100001208DF813000220039000208DF8AB
:1052E000120003A91248FDF77FFC0121022001F002
:1052F0006DFF0220019000208DF8080010208DF82D
:10530000090001208DF80A0001A8FDF7A9FB07207C
:105310008DF8000000208DF8010002208DF80200B9
:1053200001208DF803006846FFF71AFE05B000BDA6
:105330000008024070B505460C46FEF799FB882030
:10534000FEF7CCFA2846FEF7C9FA200A074908708A
:1053500008460078FEF7C2FA04490C700846007847
:10536000FEF7BCFAFEF7B8FB70BD0000F1000020AC
:105370002DE9F0410546FEF77BFB8820FEF7AEFAEB
:105380002846FEF7ABFAFEF7A7FBFEF771FB892074
:10539000FEF7A4FA0120FEF7F1F904460020FEF71B
:1053A000EDF90646FEF798FB06EB042087B2384677
:1053B000BDE8F08110B501200449087001223821B0
:1053C0000248FDF7E1FBFF2010BD0000BC000020FB
:1053D00010B501200449087001222F210248FDF771
:1053E000D3FBFF2010BD0000AC00002010B5012051
:1053F00004490870012239210248FDF7C5FBFF204E
:1054000010BD0000B40000202DE9F04F85B08346A8
:105410000C464FF0000900200490824625492046A2
:10542000FAF770FF0546FBF799F91FFA80FA4FEA81
:10543000EA094846FBF767F906461E492046FAF78F
:1054400061FF07463146FAF78FFF0546FBF786F9FD
:105450001FFA80FA00204FF0804106F0E5FB054678
:105460000E465046FBF754F9CDE9000106F0DCFB8F
:1054700007462A463346FBF7CEF8CDE90201FBF793
:10548000A0F980B204904FF47042049902EA01310D
:10549000C9F30B0241EA0200FBF72CF9044620464F
:1054A000FBF743F905B229465846FFF743FF05B01D
:1054B000BDE8F08F0000C8420349096841EA800155
:1054C000014A1160704700000070004010B50246AC
:1054D00000200C4B186820F00300104318600A4BA2
:1054E0001B6843F00403084C2360012901D130BF3D
:1054F00000E020BF044B1B6823F00403024C236030
:1055000010BD00000070004010ED00E001460020DA
:10551000034A52680A400AB1012000E000207047A7
:1055200000700040014908627047000000000E4210
:1055300010B50121084800F063F90121084600F088
:105540008FF900214FF00060FFF750FD4FF4E0604D
:10555000FFF742FD10BD00002F0001002DE9F04FC4
:10556000C7B0012046904590002501270024002661
:105570000FE09348805D00F0010040B1914850F881
:1055800026202046611CCCB202A941F82020701CC4
:10559000C6B28D4800788642EBDB00260FE08848D3
:1055A000805D00F0020040B1884850F82620204677
:1055B000611CCCB202A941F82020701CC6B28248FE
:1055C00000788642EBDB142140A8FAF760FE142134
:1055D0003BA8FAF75CFE142136A8FAF758FEE7E07C
:1055E000459801286BD100204590FEF705FD78A273
:1055F00007210020FDF736FC032C1ADB02A850F827
:1056000025306A1C75A140A805F042FD02A9681C5E
:1056100051F82030AA1C71A13BA805F039FD02A960
:10562000A81C51F82030EA1C6CA136A805F030FD0A
:105630001CE0022C0CD1012268A140A8029B05F0BD
:1056400027FD022265A13BA8039B05F021FD0DE08B
:10565000012C06D1012261A140A8029B05F018FD92
:1056600004E000225FA140A805F012FD4FF0140AEB
:10567000D34640AA59465046FDF7ABFB142035905F
:10568000222034903BAADDE93410FDF7A2FB142060
:1056900035903020349036AADDE93410FDF799FBBF
:1056A00052480090C7EBC700062202EB4000C1B28F
:1056B0000C2310220020FDF71DF8FEF7A7FCFEF7D3
:1056C000B9FA00224FF6FF710C20DFF824C100DF89
:1056D000DFF820C100DF4849086008460068042858
:1056E00066D146480078FF2862D0FBF787FC434824
:1056F00090F80080FF2041490870B8F1080F52D09F
:1057000009DCB8F1010F12D0B8F1020F2AD0B8F1BC
:10571000040F4BD144E0B8F1100F03D0B8F1200FC3
:1057200044D103E000204690814640E03FE014B9B8
:10573000012045903BE0032F01D102270FE0022F0B
:1057400005D10DB901270AE0681EC5B207E0032C98
:1057500003DD0327E01EC5B201E027460025012036
:10576000459024E014B90120459020E0012F03D199
:10577000012C12DD022710E0022F0CD1E81CA04200
:1057800001D1032709E0E81CA04202DA681CC5B277
:1057900003E0012701E0012700250120459006E0F4
:1057A0000120459003E00120459000E000BF00BFCC
:1057B000469800287FF414AF484647B0BDE8F08F04
:1057C000903800205037002044EE0008A037002019
:1057D0004C696E6BC9E8B1B8000000002530326436
:1057E0003A2564004E554C4C00000000D6EC0008F1
:1057F00091C40008D9C30008EC0000205D0000201F
:1058000029B1064A12680243044B1A6004E0034AB5
:1058100012688243014B1A60704700001C38024036
:1058200029B1064A12680243044B1A6004E0034A95
:1058300012688243014B1A6070470000243802400E
:1058400029B1064A12680243044B1A6004E0034A75
:1058500012688243014B1A607047000018380240FA
:1058600029B1064A12680243044B1A6004E0034A55
:1058700012688243014B1A607047000020380240D2
:1058800029B1064A12680243044B1A6004E0034A35
:1058900012688243014B1A607047000014380240BE
:1058A000F0B5002100220023002600240025374FF8
:1058B0003F6807F00C0131B1042912D0082913D038
:1058C0000C2934D113E0314F3F1F3F68C7F34235F5
:1058D0006F1C4FF0010C0CFA07FC4FEACC37076045
:1058E00033E02B4F076030E02A4F07602DE0274F51
:1058F0003F6807F47012254F3F6807F44003264FB6
:1059000007EB92473A78012707EB93531F4F3F6805
:1059100007F480362EB91E4F5743B7FBF3F70760E5
:1059200004E01C4F5743B7FBF3F707600DE0174F38
:105930003F1F3F68C7F342356F1C4FF0010C0CFA54
:1059400007FC4FEACC37076000BF00BF0F4F3F682E
:1059500007F0F0010909114F7C5C0768E7404760D8
:105960000A4F3F6807F4E061090A0C4F7C5C476806
:10597000E7408760054F3F6807F46051C90A074F49
:105980007C5C4768E740C760F0BD00000838024013
:105990000024F400001BB7000800002011000020C4
:1059A00010B501460022002300204A11012A02D12D
:1059B000074C236802E0064C3434236801F01F02D0
:1059C000012494401C400CB1012000E0002010BDD7
:1059D000003802400149086070470000000047425B
:1059E000014908607047000080064742014908608D
:1059F00070470000D8064742002100F44032B2F55B
:105A0000403F08D10C4A116821F0C04100F0C0426B
:105A10001143094A1160084A3432126822F44032B4
:105A2000054B34331A601A46126800F440331A43A7
:105A3000014B34331A6070470038024038B50246D3
:105A40000024009400230020CA24184D2C60532405
:105A50002C6041B1154C1C3C24681443134D1C3D73
:105A60002C6001201EE0114C1C3C246894430F4D17
:105A70001C3D2C6000BF0D4C183C246804EA122326
:105A8000009C641C0094009CB4F5005F01D0002BC6
:105A9000F1D0064C183C246804EA12240CB900200A
:105AA00000E00120FF24014D2C6038BD2428004077
:105AB00010B54FF4805000F06BF840B14FF48050B7
:105AC00000F024F800214FF48070FFF7B7FF4FF487
:105AD0000030FCF7B3FF10BD014600BF080900EB22
